{
  "abi": [
    {
      "inputs": [],
      "stateMutability": "nonpayable",
      "type": "constructor"
    },
    {
      "inputs": [],
      "name": "POSITION_ROUTER",
      "outputs": [
        {
          "internalType": "address",
          "name": "",
          "type": "address"
        }
      ],
      "stateMutability": "view",
      "type": "function"
    },
    {
      "inputs": [],
      "name": "ROUTER",
      "outputs": [
        {
          "internalType": "address",
          "name": "",
          "type": "address"
        }
      ],
      "stateMutability": "view",
      "type": "function"
    },
    {
      "inputs": [
        {
          "internalType": "address",
          "name": "token",
          "type": "address"
        },
        {
          "internalType": "uint256",
          "name": "amountIn",
          "type": "uint256"
        },
        {
          "internalType": "uint256",
          "name": "leverage",
          "type": "uint256"
        },
        {
          "internalType": "bool",
          "name": "isLong",
          "type": "bool"
        }
      ],
      "name": "trade",
      "outputs": [],
      "stateMutability": "payable",
      "type": "function"
    },
    {
      "inputs": [],
      "name": "usdc",
      "outputs": [
        {
          "internalType": "address",
          "name": "",
          "type": "address"
        }
      ],
      "stateMutability": "view",
      "type": "function"
    }
  ],
  "bytecode": {
    "object": "0x6080604052600080546001600160a01b03191673af88d065e77c8cc2239327c5edb3a432268e583117905534801561003657600080fd5b506106bb806100466000396000f3fe60806040526004361061003f5760003560e01c806332fe7b26146100445780633e413bee146100885780637ddf9e9c146100a8578063b9f4f5c0146100d0575b600080fd5b34801561005057600080fd5b5061006c73abbc5f99639c9b6bcb58544ddf04efa6802f406481565b6040516001600160a01b03909116815260200160405180910390f35b34801561009457600080fd5b5060005461006c906001600160a01b031681565b3480156100b457600080fd5b5061006c73b87a436b93ffe9d75c5cfa7bacfff96430b0986881565b6100e36100de366004610480565b6100e5565b005b6040516338c74dd960e01b815273b87a436b93ffe9d75c5cfa7bacfff96430b09868600482015273abbc5f99639c9b6bcb58544ddf04efa6802f4064906338c74dd990602401600060405180830381600087803b15801561014557600080fd5b505af1158015610159573d6000803e3d6000fd5b505060005460405163095ea7b360e01b815273abbc5f99639c9b6bcb58544ddf04efa6802f40646004820152602481018790526001600160a01b03909116925063095ea7b391506044016020604051808303816000875af11580156101c2573d6000803e3d6000fd5b505050506040513d601f19601f820116820180604052508101906101e691906104d6565b5060408051600280825260608201835260009260208301908036833750506000805483519394506001600160a01b031692849250610226576102266104fa565b60200260200101906001600160a01b031690816001600160a01b031681525050848160018151811061025a5761025a6104fa565b60200260200101906001600160a01b031690816001600160a01b031681525050600073b87a436b93ffe9d75c5cfa7bacfff96430b098686001600160a01b03166363ae21036040518163ffffffff1660e01b8152600401602060405180830381865afa1580156102ce573d6000803e3d6000fd5b505050506040513d601f19601f820116820180604052508101906102f29190610510565b905061032760405180604001604052806011815260200170657865637574696f6e206665653a20257360781b81525082610405565b6000610336620f424087610529565b610340908661054b565b610357906c0c9f2c9cd04674edea4000000061054b565b60405163f2ae372f60e01b81529091506e05c17e5a2ac2814696b8db800000009073b87a436b93ffe9d75c5cfa7bacfff96430b098689063f2ae372f9085906103b79088908d908d906000908a908e908b90899085908190600401610578565b60206040518083038185885af11580156103d5573d6000803e3d6000fd5b50505050506040513d601f19601f820116820180604052508101906103fa9190610510565b505050505050505050565b61044a828260405160240161041b929190610630565b60408051601f198184030181529190526020810180516001600160e01b03166309710a9d60e41b17905261044e565b5050565b80516a636f6e736f6c652e6c6f67602083016000808483855afa5050505050565b801515811461047d57600080fd5b50565b6000806000806080858703121561049657600080fd5b84356001600160a01b03811681146104ad57600080fd5b9350602085013592506040850135915060608501356104cb8161046f565b939692955090935050565b6000602082840312156104e857600080fd5b81516104f38161046f565b9392505050565b634e487b7160e01b600052603260045260246000fd5b60006020828403121561052257600080fd5b5051919050565b60008261054657634e487b7160e01b600052601260045260246000fd5b500490565b600081600019048311821515161561057357634e487b7160e01b600052601160045260246000fd5b500290565b6101408082528b51908201819052600090610160830190602090818f01845b828110156105bc5781516001600160a01b031685529383019390830190600101610597565b5050508192506105d68185018e6001600160a01b03169052565b50508960408301528860608301528760808301526105f860a083018815159052565b8560c08301528460e0830152836101008301526106216101208301846001600160a01b03169052565b9b9a5050505050505050505050565b604081526000835180604084015260005b8181101561065e5760208187018101516060868401015201610641565b506000606082850101526060601f19601f830116840101915050826020830152939250505056fea264697066735822122096ea7509abc5937ac50d2227ecac0b03a18608f34a4cc335a199b88e7dde1df264736f6c63430008100033",
    "linkReferences": {}
  },
  "methodIdentifiers": {
    "POSITION_ROUTER()": "7ddf9e9c",
    "ROUTER()": "32fe7b26",
    "trade(address,uint256,uint256,bool)": "b9f4f5c0",
    "usdc()": "3e413bee"
  },
  "id": 24
}